:020000040000FA
:060000000A128A11FC2F18
:100F280083120313081088148316031308108810FB
:100F3800881508159F2F031083120313081C031428
:100F48000318A72FAB2F831203130814AE2F831295
:100F5800031308100310881C03140318B42FB82FA8
:100F6800831203138814BB2F831203138810881D60
:100F7800BE2FBF2FD12F081DC22FC32FD12F0B304B
:100F8800F2002630F1005D30F000F00BC92FF10BB4
:100F9800C92FF20BC92FD02F9F2F8819D42FD52FE7
:100FA800DA2F081DD82FD92FE82FDA2F0630F200B4
:100FB8001330F100AD30F000F00BE02FF10BE02F13
:100FC800F20BE02FE72F9F2F0330F2008A30F10059
:100FD8005530F000F00BEE2FF10BEE2FF20BEE2F49
:100FE800F52F9F2F9F2F9F2F9F2F0A128A110028BE
:080FF80083010A128A11942FF3
:02400E00D4EFED
:00000001FF
